:0C0000000C942B000C9400000C940000E9
:10000C000C9400000C9400000C9400000C94000064
:10001C000C9400000C9400000C9400000C94000054
:10002C000C9400000C9400000C9400000C94000044
:10003C000C9400000C9400000C9400000C94000034
:10004C000C9400000C9400000000F894EE27ECBB1C
:10005C00F1E0FBBFEBBFE5BFF8E1F1BDE1BD8DE029
:10006C00A2E0BB27ED938A95E9F780E094E0A0E647
:10007C00ED930197E9F7E4E5F0E085919591009710
:10008C0061F0A591B59105901590BF01F001059017
:10009C000D920197E1F7FB01F0CFEFE5EDBFE4E046
:1000AC00EEBFC0E6D1E00C945B00E0E0EBBBEABB3A
:1000BC00E8BBEFEFE7BBE0E0E5BBE4BBE2BBE1BBD9
:1000CC00E3BFE2BFECBFEFBDEEBDEDBDECBDE7BDE8
:1000DC00E6BDEBBDEABDE9BDE8BDE2BDE5BDE4BDF5
:1000EC00E3BDE5BFE4BFE9BFE0E8E8B9E0E0E0BFAD
:1000FC00C89B20C001E010E00A30E0E01E07CCF401
:10010C000E94EA010E94F2017F936F93FF93EF9399
:10011C000E94EA0131970E94F201AF91BF918F9139
:10012C009F910E945E030E94EB02E8BB0F5F1F4F82
:10013C00E3CFDECFDDCFFFCF24971A930A9353D1B1
:10014C000E9463042CF0EFEFFFEF6FE77FEF6CC0C2
:10015C004FD10E948502EDB7FEB73197FA93EA931F
:10016C001F930F930E9497020F911F9146D13BD181
:10017C00E3EFF4E065E37FE30E943F0430F442D107
:10018C000E945E033AD1015010402DD13DD141D196
:10019C007F936F93FF93EF932BD1A0E0B0E080E8B7
:1001AC009FE30E945E03AF91BF918F919F910E943C
:1001BC00FA0323D127D132D1A6E2B2E485E69FE33C
:1001CC000E94AC03DF01CB01EEE4F1E164E570E4E5
:1001DC0020D109D10E94AC037F936F93FF93EF93CF
:1001EC00AA81BB818C819D81EDE4F1E164ED7FE31B
:1001FC0010D1AF91BF918F919F910E94FA037F9381
:10020C006F93FF93EF93F8010E947B020E942403EB
:10021C00A8E1B2E781E39FE30E94AC03AF91BF91E9
:10022C008F919F910E945E03198108812A960895EF
:10023C0028971A930A93F9D0E0E5FCEA6EEA72EC7F
:10024C000E943F0410F4F6D07EC0EA85FB856C85D5
:10025C007D850E945F0411F4D7D075C0E6D0E8E12B
:10026C00F2E761EB72E40E943F0409F010F40C9485
:10027C004401EFEFFFEF6FE77FE765C0D6D0EBE30C
:10028C00FAEA68EB7FE30E94AC03EA87FB876C8792
:10029C007D870E9485020E946A020E94ED028F01F6
:1002AC00F801C3D00E947B020E942403B2D0DF016C
:1002BC00CB01E0E0F0E060E07FE3ABD09ED0A2D0D9
:1002CC00ADD0ADE6BCE48CE69DE30E94AC03A6EA9F
:1002DC00B3EE86EE90E40E945E0385D00E94AC03E0
:1002EC008CD0EA81FB816C817D81A8E2BDE886EA35
:1002FC0091E40E945E03EA83FB836C837D8378D058
:10030C00AA81BB818C819D810E945E03A3EFB4E026
:10031C0085EB9FE30E94AC037F936F93FF93EF9366
:10032C0062D0EA81FB816C817D810E945703AF9181
:10033C00BF918F919F910E94FA030E9485021A939C
:10034C000A930E94AA02198108812E960895249777
:10035C0076D00E945F0411F46DD034C0A885B985A5
:10036C008A859B850E9463044CF46ED00E945F04C6
:10037C0011F44AD027C063D06CD024C065D0DE0104
:10038C000E94ED020E948002E881F9816A817B81E2
:10039C000E942403DF01CB0157D00E94690411F0A5
:1003AC0049D010C04CD00E94B80253D0E887F987CE
:1003BC006A877B87E881E17011F441D003C03FD09C
:1003CC000E94B8022C960895E0E0F0E060E070E442
:1003DC000E948502F80108950E947B020E9424036A
:1003EC000E948502B4CFAE81BF818885998508951E
:1003FC00EE81FF81688579850895EE83FF83688798
:10040C0079870895F5DFEFCFE0E0F0E060E87FE377
:10041C0008950E948A020E94570308950E94AC031B
:10042C00EA83FB836C837D830895AA85BB858C85C9
:10043C009D850895E0E0F0E060E070E00895E885C7
:10044C00F9856A857B850895EC81FD816E817F81BC
:10045C0008950E94850270DEAC81BD818E819F81E2
:10046C000E94AC030E948502E3CE7B816A81F981F4
:10047C00E88177FB770F67FD7160972F9E5781F0AE
:10048C0078F0983190F4AA27BB2788270894879591
:10049C00B795A7959A95D1F7EA23FB23682305C056
:1004AC00E8947727EE27FF2766276F77769508F471
:1004BC00606877F9A991B99189919991EA17FB072D
:1004CC006807790797FB0895D0DF09F40895F6F7CC
:1004DC009FEBAA27BB2780E8EBC0F0956095709541
:1004EC00E195FF4F6F4F7F4F08956F2F660F660B8F
:1004FC00762F0895ED93FD936D937C9308957A93E5
:10050C006A93FA93EA930895182E862F612D192E6B
:10051C00972F712D1B2EBF2FF12D1A2EAE2FE12DE3
:10052C000895A991B991E991F9916991799177FB24
:10053C00660F771F88277E57880B7D938C937EE7F9
:10054C00769567957EF00895A991B991E991F99105
:10055C006991799177FB660F771F7A0F769567957E
:10056C000EF0089530976040704009F0705808956F
:10057C00552342F4503811F4E0FF04C03196691F42
:10058C00791F6BF050E8572711F45F93CDC05F3F94
:10059C0031F0660F000C57956795752F08955F9392
:1005AC0000200AF0CDC0C6C050E8192E1522880FC5
:1005BC00991F9527550F879550E8072E0522660F32
:1005CC00771F7527550F67950895689401C0E894B7
:1005DC005F93F2DF703818F07F3F08F4A5C056E146
:1005EC00571BAAF4519558300EF4593030F0EFEFF8
:1005FC00FFEF6FEF7FE777F91AC077275523B9F034
:10060C00EE0FFF1F661F771F5A95D1F710C0772783
:10061C00583028F0EF2FF62F672F5850F9CF55236D
:10062C0031F076956795F795E7955A95D1F70020B7
:10063C000AF453DF5F910895689401C0E8943097F1
:10064C0060407040B1F0002426F0772312F400943F
:10065C0044DF172E7EE1112032F07A95EE0FFF1F4A
:10066C00661F111CF9CFEF2FF62F612D5F938ADFD8
:10067C005F9108954F93AF01FD01DA01AB01BC010D
:10068C00CA01402D012C142E4F910895EA0FFB1F27
:10069C00681F0895E095F0956095EF5FFF4F6F4FE1
:1006AC0008955F9381DF903871F150E8152604C0EE
:1006BC005F937ADF903839F1703821F1572F591B3D
:1006CC0013F112F4D7DFFACF583118F0AA27BB2751
:1006DC008827583028F0AB2FB82F88275850F9CFDF
:1006EC00552329F08695B795A7955A95D9F7502D8E
:1006FC00512562F0CBDF38F46795F795E795739544
:10070C0013F41EC0B7DF3EDF5F910895EA1BFB0BAD
:10071C00680B51F010F40094BDDF6623A2F3EE0FCA
:10072C00FF1F661F7A95CBF7EE27FF2766277727E3
:10073C005F910895EFEFFFEF6FE77FEF5F91089503
:10074C00EFEFFFEF6FE77FE75F9108955F932CDF8B
:10075C00703851F3903841F301240894791F23F435
:10076C001CF300203AF3ECCF0F921F932F933F937F
:10077C004F93112722279927689FA0018F9F302D17
:10078C00410D591F6B9F300D411D591F8E9F27D056
:10079C00BF9F25D06A9F23D0BE9F1DD0AF9F1BD07B
:1007AC00AE9F110D291F391F491F591FE32FF42F1D
:1007BC00652F522F4F913F912F911F910F906623D0
:1007CC002AF0550FEE1FFF1F661F02C073954BF2E8
:1007DC00CFDE5F910895100D211D391F02C0200D31
:1007EC00311D491F591F08955F93DEDE703821F4C7
:1007FC0011200AF49FCFA4CF903809F495CF01248F
:10080C000894970B1BF4D4F30020F3CF792F1F938C
:10081C002F933F934F9311241127222733274427DB
:10082C00552790E2AE17BF078607410730F0AE1B85
:10083C00BF0B860B410B089401C08894551F221FD7
:10084C00331F111CAA1FBB1F881F441F9A9551F7F9
:10085C00F901612D4F913F912F911F91662332F039
:10086C00550FEE1FFF1F661F7A9543F281DE5F91D5
:10087C00089599239AF0772342F0971748F029F4BA
:10088C00AE17BF07860720F031F09894889408952E
:10089C009894089408951894889408957723C2F72F
:1008AC00971798F3A9F7EA17FB07680788F399F3EA
:1008BC00ECCF309760407040089500240A160B0668
:1008CC00080609060895EA17FB07680779070895D3
:00000001FF
