:0A0000000C942B000C9400000C94EB
:10000A0000000C9400000C9400000C9400000C9466
:10001A0000000C9400000C9400000C9400000C9456
:10002A0000000C9400000C9400000C9400000C9446
:10003A0000000C9400000C9400000C9400000C9436
:10004A0000000C9400000C9400000000F894EE27C5
:10005A00ECBBF1E0FBBFEBBFE5BFF8E1F1BDE1BDF1
:10006A008DE0A2E0BB27ED938A95E9F780E094E062
:10007A00A0E6ED930197E9F7E4E5F0E08591959123
:10008A00009761F0A591B59105901590BF01F00117
:10009A0005900D920197E1F7FB01F0CFEFE5EDBF77
:1000AA00E4E0EEBFC0E6D1E00C945B00E0E0EBBB1D
:1000BA00EABBE8BBEFEFE7BBE0E0E5BBE4BBE2BBD2
:1000CA00E1BBE3BFE2BFECBFEFBDEEBDEDBDECBDF2
:1000DA00E7BDE6BDEBBDEABDE9BDE8BDE2BDE5BDF4
:1000EA00E4BDE3BDE5BFE4BFE9BFE0E8E8B9E0E0AD
:1000FA00E0BF03B31127E0E0F0E060E070E40E94A3
:10010A007C02F8010E94D8010E947C020E949B0195
:10011A000E94E2020E94DD01E0E00E94DD01EBCFD5
:10012A00FFCF24971A930A934AD10E945A042CF0BB
:10013A00EFEFFFEF6FE77FEF69C046D10E947C02C5
:10014A00EDB7FEB73197FA93EA931F930F930E9484
:10015A008E020F911F913DD132D1E3EFF4E065E3B6
:10016A007FE30E94360430F439D10E94550331D11D
:10017A000150104024D134D138D17F936F93FF932B
:10018A00EF9322D1A0E0B0E080E89FE30E945503FC
:10019A00AF91BF918F919F910E94F1031AD11ED105
:1001AA0029D1A6E2B2E485E69FE30E94A303DF0118
:1001BA00CB01EEE4F1E164E570E417D100D10E94CD
:1001CA00A3037F936F93FF93EF93AA81BB818C81E3
:1001DA009D81EDE4F1E164ED7FE307D1AF91BF9139
:1001EA008F919F910E94F1037F936F93FF93EF93F7
:1001FA00F801D9D0A8E1B2E781E39FE30E94A30303
:10020A00AF91BF918F919F910E94550319810881E7
:10021A002A96089528971A930A93F3D0E0E5FCEA00
:10022A006EEA72EC0E94360410F4F0D07BC0EA85C4
:10023A00FB856C857D850E94560411F4D1D072C06D
:10024A00E0D0E8E1F2E761EB72E40E94360409F0DB
:10025A0010F40C943501EFEFFFEF6FE77FE762C010
:10026A00D0D0EBE3FAEA68EB7FE30E94A303EA87C4
:10027A00FB876C877D870E947C020E9461020E9434
:10028A00E4028F01F801BDD08ED0AFD0DF01CB01DF
:10029A00E0E0F0E060E07FE3A8D09BD09FD0AAD056
:1002AA00ADE6BCE48CE69DE30E94A303A6EAB3EEA6
:1002BA0086EE90E40E94550382D00E94A30389D05F
:1002CA00EA81FB816C817D81A8E2BDE886EA91E43E
:1002DA000E945503EA83FB836C837D8375D0AA81D0
:1002EA00BB818C819D810E945503A3EFB4E085EB0D
:1002FA009FE30E94A3037F936F93FF93EF935FD0D3
:10030A00EA81FB816C817D810E944E03AF91BF918E
:10031A008F919F910E94F1030E947C021A930A9383
:10032A000E94A102198108812E960895249773D0FC
:10033A000E94560411F46AD034C0A885B9858A850A
:10034A009B850E945A044CF46BD00E94560411F407
:10035A0047D027C060D069D024C062D0DE010E9495
:10036A00E4020E947702E881F9816A817B810E9416
:10037A001B03DF01CB0154D00E94600411F046D068
:10038A0010C049D00E94AF0250D0E887F9876A8727
:10039A007B87E881E17011F43ED003C03CD00E9413
:1003AA00AF022C9608950E9472020E941B030895C0
:1003BA00E8BBE2E3F0E0FA93EA930C942602AE81FA
:1003CA00BF81888599850895EE81FF816885798541
:1003DA000895EE83FF83688779870895F5DFEFCF65
:1003EA00E0E0F0E060E87FE308950E9481020E9465
:1003FA004E0308950E94A303EA83FB836C837D83E3
:10040A000895AA85BB858C859D850895E0E0F0E076
:10041A0060E070E00895E885F9856A857B8508952E
:10042A00EC81FD816E817F8108950E947C0279DED4
:10043A00AC81BD818E819F810E94A3030E947C02B0
:10044A00E9CEE991F991309639F088EE93E0019777
:10045A00F1F7A8953197C9F708957B816A81F981E7
:10046A00E88177FB770F67FD7160972F9E5781F0C0
:10047A0078F0983190F4AA27BB27882708948795A3
:10048A00B795A7959A95D1F7EA23FB23682305C068
:10049A00E8947727EE27FF2766276F77769508F483
:1004AA00606877F9A991B99189919991EA17FB073F
:1004BA006807790797FB0895D0DF09F40895F6F7DE
:1004CA009FEBAA27BB2780E8EBC0F0956095709553
:1004DA00E195FF4F6F4F7F4F08956F2F660F660BA1
:1004EA00762F0895ED93FD936D937C9308957A93F7
:1004FA006A93FA93EA930895182E862F612D192E7E
:10050A00972F712D1B2EBF2FF12D1A2EAE2FE12DF5
:10051A000895A991B991E991F9916991799177FB36
:10052A00660F771F88277E57880B7D938C937EE70B
:10053A00769567957EF00895A991B991E991F99117
:10054A006991799177FB660F771F7A0F7695679590
:10055A000EF0089530976040704009F07058089581
:10056A00552342F4503811F4E0FF04C03196691F54
:10057A00791F6BF050E8572711F45F93CDC05F3FA6
:10058A0031F0660F000C57956795752F08955F93A4
:10059A0000200AF0CDC0C6C050E8192E1522880FD7
:1005AA00991F9527550F879550E8072E0522660F44
:1005BA00771F7527550F67950895689401C0E894C9
:1005CA005F93F2DF703818F07F3F08F4A5C056E158
:1005DA00571BAAF4519558300EF4593030F0EFEF0A
:1005EA00FFEF6FEF7FE777F91AC077275523B9F046
:1005FA00EE0FFF1F661F771F5A95D1F710C0772796
:10060A00583028F0EF2FF62F672F5850F9CF55237F
:10061A0031F076956795F795E7955A95D1F70020C9
:10062A000AF453DF5F910895689401C0E894309703
:10063A0060407040B1F0002426F0772312F4009451
:10064A0044DF172E7EE1112032F07A95EE0FFF1F5C
:10065A00661F111CF9CFEF2FF62F612D5F938ADFEA
:10066A005F9108954F93AF01FD01DA01AB01BC011F
:10067A00CA01402D012C142E4F910895EA0FFB1F39
:10068A00681F0895E095F0956095EF5FFF4F6F4FF3
:10069A0008955F9381DF903871F150E8152604C000
:1006AA005F937ADF903839F1703821F1572F591B4F
:1006BA0013F112F4D7DFFACF583118F0AA27BB2763
:1006CA008827583028F0AB2FB82F88275850F9CFF1
:1006DA00552329F08695B795A7955A95D9F7502DA0
:1006EA00512562F0CBDF38F46795F795E795739556
:1006FA0013F41EC0B7DF3EDF5F910895EA1BFB0BC0
:10070A00680B51F010F40094BDDF6623A2F3EE0FDC
:10071A00FF1F661F7A95CBF7EE27FF2766277727F5
:10072A005F910895EFEFFFEF6FE77FEF5F91089515
:10073A00EFEFFFEF6FE77FE75F9108955F932CDF9D
:10074A00703851F3903841F301240894791F23F447
:10075A001CF300203AF3ECCF0F921F932F933F9391
:10076A004F93112722279927689FA0018F9F302D29
:10077A00410D591F6B9F300D411D591F8E9F27D068
:10078A00BF9F25D06A9F23D0BE9F1DD0AF9F1BD08D
:10079A00AE9F110D291F391F491F591FE32FF42F2F
:1007AA00652F522F4F913F912F911F910F906623E2
:1007BA002AF0550FEE1FFF1F661F02C073954BF2FA
:1007CA00CFDE5F910895100D211D391F02C0200D43
:1007DA00311D491F591F08955F93DEDE703821F4D9
:1007EA0011200AF49FCFA4CF903809F495CF0124A1
:1007FA000894970B1BF4D4F30020F3CF792F1F939F
:10080A002F933F934F9311241127222733274427ED
:10081A00552790E2AE17BF078607410730F0AE1B97
:10082A00BF0B860B410B089401C08894551F221FE9
:10083A00331F111CAA1FBB1F881F441F9A9551F70B
:10084A00F901612D4F913F912F911F91662332F04B
:10085A00550FEE1FFF1F661F7A9543F281DE5F91E7
:10086A00089599239AF0772342F0971748F029F4CC
:10087A00AE17BF07860720F031F098948894089540
:10088A009894089408951894889408957723C2F741
:10089A00971798F3A9F7EA17FB07680788F399F3FC
:1008AA00ECCF309760407040089500240A160B067A
:1008BA00080609060895EA17FB07680779070895E5
:00000001FF
