:0A0000000C942B000C9400000C94EB
:10000A0000000C9400000C9400000C9400000C9466
:10001A0000000C9400000C9400000C9400000C9456
:10002A0000000C9400000C9400000C9400000C9446
:10003A0000000C9400000C9400000C9400000C9436
:10004A0000000C9400000C9400000000F894EE27C5
:10005A00ECBBF1E0FBBFEBBFE5BFF8E1F1BDE1BDF1
:10006A008DE0A2E0BB27ED938A95E9F780E094E062
:10007A00A0E6ED930197E9F7E4E5F0E08591959123
:10008A00009761F0A591B59105901590BF01F00117
:10009A0005900D920197E1F7FB01F0CFEFE5EDBF77
:1000AA00E4E0EEBFC0E6D1E00C945B002497E0E008
:1000BA00EBBBEABBE8BBE7BBE5BBEFEFE4BBE0E0C9
:1000CA00E2BBE1BBE3BFE2BFECBFEFBDEEBDEDBDFE
:1000DA00ECBDE7BDE6BDEBBDEABDE9BDE8BDE2BDED
:1000EA00E5BDE4BDE3BDE5BFE4BFE9BFE0E8E8B9CB
:1000FA00E0E0E0BF41E050E0E1E0F0E0EA83FB83CA
:10010A0006B3112721E030E002171307FCF0E1E003
:10011A00F0E0E217F30729F0E2E0F0E0E217F30774
:10012A0029F4E1E0F0E0E883F9830AC0EA81FB817F
:10013A00E40FF51FE883F9834A815B81EA83FB8335
:10014A00E881F981E5BB2F5F3F4FDECFD3CFFFCFE9
:00000001FF
