:0A0000000C942B000C9400000C94EB
:10000A0000000C9400000C9400000C9400000C9466
:10001A0000000C9400000C9400000C9400000C9456
:10002A0000000C9400000C9400000C9400000C9446
:10003A0000000C9400000C9400000C9400000C9436
:10004A0000000C9400000C9400000000F894EE27C5
:10005A00ECBBF1E0FBBFEBBFE5BFF8E1F1BDE1BDF1
:10006A008DE0A2E0BB27ED938A95E9F780E094E062
:10007A00A0E6ED930197E9F7E4E5F0E08591959123
:10008A00009761F0A591B59105901590BF01F00117
:10009A0005900D920197E1F7FB01F0CFEFE5EDBF77
:1000AA00E4E0EEBFC0E6D1E00C945B00E0E0EBBB1D
:1000BA00EABBE8BBEFEFE7BBE0E0E5BBE4BBE2BBD2
:1000CA00E1BBE3BFE2BFECBFEFBDEEBDEDBDECBDF2
:1000DA00E7BDE6BDEBBDEABDE9BDE8BDE2BDE5BDF4
:1000EA00E4BDE3BDE5BFE4BFE9BFE0E8E8B9E0E0AD
:1000FA00E0BF00E010E00A30E0E01E079CF4E0E018
:10010A00F0E060E070E40E946C02F8010E94DB01FA
:10011A000E946C020E949E010E94D202E8BB0F5FFD
:10012A001F4FE9CFE6CFFFCF24971A930A9343D103
:10013A000E944A042CF0EFEFFFEF6FE77FEF69C0F0
:10014A003FD10E946C02EDB7FEB73197FA93EA935A
:10015A001F930F930E947E020F911F9136D12BD1CC
:10016A00E3EFF4E065E37FE30E94260430F432D142
:10017A000E9445032AD1015010401DD12DD131D101
:10018A007F936F93FF93EF931BD1A0E0B0E080E8D9
:10019A009FE30E944503AF91BF918F919F910E9467
:1001AA00E10313D117D122D1A6E2B2E485E69FE397
:1001BA000E949303DF01CB01EEE4F1E164E570E410
:1001CA0010D1F9D00E9493037F936F93FF93EF931B
:1001DA00AA81BB818C819D81EDE4F1E164ED7FE32D
:1001EA0000D1AF91BF918F919F910E94E1037F93BC
:1001FA006F93FF93EF93F801D9D0A8E1B2E781E3B7
:10020A009FE30E949303AF91BF918F919F910E94A8
:10021A004503198108812A96089528971A930A9303
:10022A00ECD0E0E5FCEA6EEA72EC0E94260410F4D7
:10023A00E9D07BC0EA85FB856C857D850E944604F2
:10024A0011F4CAD072C0D9D0E8E1F2E761EB72E4E6
:10025A000E94260409F010F40C943801EFEFFFEF26
:10026A006FE77FE762C0C9D0EBE3FAEA68EB7FE3A6
:10027A000E949303EA87FB876C877D870E946C0242
:10028A000E9451020E94D4028F01F801B6D08ED08A
:10029A00A8D0DF01CB01E0E0F0E060E07FE3A1D08D
:1002AA0094D098D0A3D0ADE6BCE48CE69DE30E943E
:1002BA009303A6EAB3EE86EE90E40E9445037BD050
:1002CA000E94930382D0EA81FB816C817D81A8E23E
:1002DA00BDE886EA91E40E944503EA83FB836C83C6
:1002EA007D836ED0AA81BB818C819D810E9445034A
:1002FA00A3EFB4E085EB9FE30E9493037F936F9390
:10030A00FF93EF9358D0EA81FB816C817D810E9433
:10031A003E03AF91BF918F919F910E94E1030E948A
:10032A006C021A930A930E949102198108812E96EF
:10033A00089524976CD00E94460411F463D034C007
:10034A00A885B9858A859B850E944A044CF464D0A5
:10035A000E94460411F440D027C059D062D024C06C
:10036A005BD0DE010E94D4020E946702E881F98113
:10037A006A817B810E940B03DF01CB014DD00E9471
:10038A00500411F03FD010C042D00E949F0249D0C1
:10039A00E887F9876A877B87E881E17011F437D0AB
:1003AA0003C035D00E949F022C9608950E946202D3
:1003BA000E940B030895AE81BF81888599850895AF
:1003CA00EE81FF81688579850895EE83FF836887CA
:1003DA0079870895F5DFEFCFE0E0F0E060E87FE3AA
:1003EA0008950E9471020E943E0308950E94930399
:1003FA00EA83FB836C837D830895AA85BB858C85FC
:10040A009D850895E0E0F0E060E070E00895E885F9
:10041A00F9856A857B850895EC81FD816E817F81EE
:10042A0008950E946C0280DEAC81BD818E819F811D
:10043A000E9493030E946C02F0CE7B816A81F9814B
:10044A00E88177FB770F67FD7160972F9E5781F0E0
:10045A0078F0983190F4AA27BB27882708948795C3
:10046A00B795A7959A95D1F7EA23FB23682305C088
:10047A00E8947727EE27FF2766276F77769508F4A3
:10048A00606877F9A991B99189919991EA17FB075F
:10049A006807790797FB0895D0DF09F40895F6F7FE
:1004AA009FEBAA27BB2780E8EBC0F0956095709573
:1004BA00E195FF4F6F4F7F4F08956F2F660F660BC1
:1004CA00762F0895ED93FD936D937C9308957A9317
:1004DA006A93FA93EA930895182E862F612D192E9E
:1004EA00972F712D1B2EBF2FF12D1A2EAE2FE12D16
:1004FA000895A991B991E991F9916991799177FB57
:10050A00660F771F88277E57880B7D938C937EE72B
:10051A00769567957EF00895A991B991E991F99137
:10052A006991799177FB660F771F7A0F76956795B0
:10053A000EF0089530976040704009F070580895A1
:10054A00552342F4503811F4E0FF04C03196691F74
:10055A00791F6BF050E8572711F45F93CDC05F3FC6
:10056A0031F0660F000C57956795752F08955F93C4
:10057A0000200AF0CDC0C6C050E8192E1522880FF7
:10058A00991F9527550F879550E8072E0522660F64
:10059A00771F7527550F67950895689401C0E894E9
:1005AA005F93F2DF703818F07F3F08F4A5C056E178
:1005BA00571BAAF4519558300EF4593030F0EFEF2A
:1005CA00FFEF6FEF7FE777F91AC077275523B9F066
:1005DA00EE0FFF1F661F771F5A95D1F710C07727B6
:1005EA00583028F0EF2FF62F672F5850F9CF5523A0
:1005FA0031F076956795F795E7955A95D1F70020EA
:10060A000AF453DF5F910895689401C0E894309723
:10061A0060407040B1F0002426F0772312F4009471
:10062A0044DF172E7EE1112032F07A95EE0FFF1F7C
:10063A00661F111CF9CFEF2FF62F612D5F938ADF0A
:10064A005F9108954F93AF01FD01DA01AB01BC013F
:10065A00CA01402D012C142E4F910895EA0FFB1F59
:10066A00681F0895E095F0956095EF5FFF4F6F4F13
:10067A0008955F9381DF903871F150E8152604C020
:10068A005F937ADF903839F1703821F1572F591B6F
:10069A0013F112F4D7DFFACF583118F0AA27BB2783
:1006AA008827583028F0AB2FB82F88275850F9CF11
:1006BA00552329F08695B795A7955A95D9F7502DC0
:1006CA00512562F0CBDF38F46795F795E795739576
:1006DA0013F41EC0B7DF3EDF5F910895EA1BFB0BE0
:1006EA00680B51F010F40094BDDF6623A2F3EE0FFD
:1006FA00FF1F661F7A95CBF7EE27FF276627772716
:10070A005F910895EFEFFFEF6FE77FEF5F91089535
:10071A00EFEFFFEF6FE77FE75F9108955F932CDFBD
:10072A00703851F3903841F301240894791F23F467
:10073A001CF300203AF3ECCF0F921F932F933F93B1
:10074A004F93112722279927689FA0018F9F302D49
:10075A00410D591F6B9F300D411D591F8E9F27D088
:10076A00BF9F25D06A9F23D0BE9F1DD0AF9F1BD0AD
:10077A00AE9F110D291F391F491F591FE32FF42F4F
:10078A00652F522F4F913F912F911F910F90662302
:10079A002AF0550FEE1FFF1F661F02C073954BF21A
:1007AA00CFDE5F910895100D211D391F02C0200D63
:1007BA00311D491F591F08955F93DEDE703821F4F9
:1007CA0011200AF49FCFA4CF903809F495CF0124C1
:1007DA000894970B1BF4D4F30020F3CF792F1F93BF
:1007EA002F933F934F93112411272227332744270E
:1007FA00552790E2AE17BF078607410730F0AE1BB8
:10080A00BF0B860B410B089401C08894551F221F09
:10081A00331F111CAA1FBB1F881F441F9A9551F72B
:10082A00F901612D4F913F912F911F91662332F06B
:10083A00550FEE1FFF1F661F7A9543F281DE5F9107
:10084A00089599239AF0772342F0971748F029F4EC
:10085A00AE17BF07860720F031F098948894089560
:10086A009894089408951894889408957723C2F761
:10087A00971798F3A9F7EA17FB07680788F399F31C
:10088A00ECCF309760407040089500240A160B069A
:10089A00080609060895EA17FB0768077907089505
:00000001FF
