:020000000C945E
:100002002B000C9400000C9400000C9400000C9443
:1000120000000C9400000C9400000C9400000C945E
:1000220000000C9400000C9400000C9400000C944E
:1000320000000C9400000C9400000C9400000C943E
:1000420000000C9400000C9400000C9400000C942E
:1000520000000000F894EE27ECBBF1E0FBBFEBBF21
:10006200E5BFF8E1F1BDE1BD8DE0A2E0BB27ED9374
:100072008A95E9F780E094E0A0E6ED930197E9F72D
:10008200E4E5F0E085919591009761F0A591B59135
:1000920005901590BF01F00105900D920197E1F7CF
:1000A200FB01F0CFEFE5EDBFE4E0EEBFC0E6D1E04B
:1000B2000C945B00E0E0EBBBEABBE8BBE7BBE5BB53
:1000C200EFEFE4BBE0E0E2BBE1BBE3BFE2BFECBFCA
:1000D200EFBDEEBDEDBDECBDE7BDE6BDEBBDEABDDE
:1000E200E9BDE8BDE2BDE5BDE4BDE3BDE5BFE4BFFA
:1000F200E9BFE0E8E8B9E0E0E0BF06B31127F801A4
:100102000E9442010E94D8010E9447010E94A00061
:100112007F936F93FF93EF93E0E0F0E060E070E491
:100122000E9447010E94A000AF91BF918F919F91C1
:100132000E94AE020E949F01E5BBDFCFFFCF249752
:100142001A930A9382D00E9413032CF0EFEFFFEF71
:100152006FE77FEF76C07ED00E944701EDB7FEB712
:100162003197FA93EA931F930F930E9459010F91CB
:100172001F9175D06AD0E3EFF4E065E37FE30E945C
:10018200F30238F467D061D00E94120268D00150A5
:1001920010405BD0E0E0F0E060E87FE365D07F9361
:1001A2006F93FF93EF9356D0A0E0B0E080E89FE317
:1001B2000E941202AF91BF918F919F910E94AE0255
:1001C2004ED048D042D00E946002EA83FB836C8307
:1001D2007D83A6E2B2E485E69FE30E946002DF012E
:1001E200CB01EEE4F1E164E570E43ED02ED00E9452
:1001F20060027F936F93FF93EF93AA81BB818C81FF
:100202009D81EDE4F1E164ED7FE32ED0AF91BF91EA
:100212008F919F910E94AE027F936F93FF93EF9312
:10022200F8010E9442010E94D801A8E1B2E781E3ED
:100232009FE30E946002AF91BF918F919F910E94B4
:100242001202198108812A960895AE81BF8188859C
:1002520099850895EE81FF81688579850895EE83F9
:10026200FF836887798708950E944C010E940B02E0
:100272000895F09560957095E195FF4F6F4F7F4F10
:1002820008956F2F660F660B762F08957A936A93FF
:10029200FA93EA930895182E862F612D192E972F1F
:1002A200712D1B2EBF2FF12D1A2EAE2FE12D089589
:1002B200A991B991E991F9916991799177FB660FC9
:1002C200771F88277E57880B7D938C937EE77695E0
:1002D20067950EF0089530976040704009F07058AD
:1002E2000895552342F4503811F4E0FF04C03196CA
:1002F200691F791F6BF050E8572711F45F93CDC047
:100302005F3F31F0660F000C57956795752F089582
:100312005F9300200AF0CDC0C6C050E8192E152206
:10032200880F991F9527550F879550E8072E0522AC
:10033200660F771F7527550F67950895689401C05A
:10034200E8945F93F2DF703818F07F3F08F4A5C09D
:1003520056E1571BAAF4519558300EF4593030F03B
:10036200EFEFFFEF6FEF7FE777F91AC0772755239B
:10037200B9F0EE0FFF1F661F771F5A95D1F710C015
:100382007727583028F0EF2FF62F672F5850F9CFE4
:10039200552331F076956795F795E7955A95D1F7FC
:1003A20000200AF466DF5F910895689401C0E89422
:1003B200309760407040B1F0002426F0772312F4A9
:1003C200009457DF172E7EE1112032F07A95EE0F5E
:1003D200FF1F661F111CF9CFEF2FF62F612D5F93C0
:1003E2008ADF5F9108954F93AF01FD01DA01AB01FE
:1003F200BC01CA01402D012C142E4F910895EA0F21
:10040200FB1F681F0895E095F0956095EF5FFF4F21
:100412006F4F08955F9381DF903871F150E8152690
:1004220004C05F937ADF903839F1703821F1572F89
:10043200591B13F112F4D7DFFACF583118F0AA275B
:10044200BB278827583028F0AB2FB82F8827585061
:10045200F9CF552329F08695B795A7955A95D9F7DF
:10046200502D512562F0CBDF38F46795F795E7956B
:10047200739513F41EC0B7DF3EDF5F910895EA1B48
:10048200FB0B680B51F010F40094BDDF6623A2F35E
:10049200EE0FFF1F661F7A95CBF7EE27FF27662721
:1004A20077275F910895EFEFFFEF6FE77FEF5F919F
:1004B2000895EFEFFFEF6FE77FE75F9108955F9396
:1004C2002CDF703851F3903841F301240894791FDE
:1004D20023F41CF300203AF3ECCF0F921F932F93D7
:1004E2003F934F93112722279927689FA0018F9F3F
:1004F200302D410D591F6B9F300D411D591F8E9F8D
:1005020027D0BF9F25D06A9F23D0BE9F1DD0AF9F0B
:100512001BD0AE9F110D291F391F491F591FE32FF1
:10052200F42F652F522F4F913F912F911F910F90D2
:1005320066232AF0550FEE1FFF1F661F02C0739538
:100542004BF2CFDE5F910895100D211D391F02C0BD
:10055200200D311D491F591F08955F93DEDE70384B
:1005620021F411200AF49FCFA4CF903809F495CF3B
:1005720001240894970B1BF4D4F30020F3CF792FB6
:100582001F932F933F934F93112411272227332731
:100592004427552790E2AE17BF078607410730F080
:1005A200AE1BBF0B860B410B089401C08894551FEC
:1005B200221F331F111CAA1FBB1F881F441F9A959D
:1005C20051F7F901612D4F913F912F911F916623B0
:1005D20032F0550FEE1FFF1F661F7A9543F281DE40
:1005E2005F91089599239AF0772342F0971748F084
:1005F20029F4AE17BF07860720F031F0989488944B
:1006020008959894089408951894889408957723E7
:10061200C2F7971798F3A9F7EA17FB07680788F359
:1006220099F3ECCF00240A160B0608060906089572
:00000001FF
