:080000000C942B000C9400008D
:100008000C9400000C9400000C9400000C94000068
:100018000C9400000C9400000C9400000C94000058
:100028000C9400000C9400000C9400000C94000048
:100038000C9400000C9400000C9400000C94000038
:100048000C9400000C9400000C9400000000F8943C
:10005800EE27ECBBF1E0FBBFEBBFE5BFF8E1F1BD7C
:10006800E1BD8DE0A2E0BB27ED938A95E9F780E03A
:1000780094E0A0E6ED930197E9F7E4E5F0E08591D7
:100088009591009761F0A591B59105901590BF01E4
:10009800F00105900D920197E1F7FB01F0CFEFE534
:1000A800EDBFE4E0EEBFC0E6D1E00C945B006497DE
:1000B800E0E0EBBBEABBE8BBE7BBE5BBE4BBE2BB0C
:1000C800EFEFE1BBE0E0E3BFE2BFECBFEFBDEEBDA9
:1000D800EDBDECBDE7BDE6BDEBBDEABDE9BDE8BDE4
:1000E800E2BDE5BDE4BDE3BDE5BFE4BFE9BFE0E8CF
:1000F800E8B9E0E0E0BF20E030E02A30E0E03E0789
:100108005CF4F90125D0AE0FBF1FE6B3F0E0ED9324
:10011800FC932F5F3F4FF1CF03B31127F80118D09D
:10012800AE0FBF1FE0E0F0E0ED93FC9320E030E07D
:100138002A30E0E03E0754F4F9010AD0AE0FBF1FA1
:100148000E94B000E2BB2F5F3F4FF2CFD4CFFFCF6A
:10015800DE01EE0FFF1F0895ED91FC9111970895B0
:00000001FF
