:0E0000000C942B000C9400000C9400000C9447
:10000E0000000C9400000C9400000C9400000C9462
:10001E0000000C9400000C9400000C9400000C9452
:10002E0000000C9400000C9400000C9400000C9442
:10003E0000000C9400000C9400000C9400000C9432
:10004E0000000C9400000000F894EE27ECBBF1E0E9
:10005E00FBBFEBBFE5BFF8E1F1BDE1BD8DE0A2E076
:10006E00BB27ED938A95E9F780E094E0A0E6ED9347
:10007E000197E9F7E4E5F0E085919591009761F03D
:10008E00A591B59105901590BF01F00105900D92C7
:10009E000197E1F7FB01F0CFEFE5EDBFE4E0EEBF36
:1000AE00C0E6D1E00C945B006697E0E0EBBBEABBE8
:1000BE00E8BBE7BBE5BBEFEFE4BBE0E0E2BBEFEF95
:1000CE00E1BBE0E0E3BFE2BFECBFEFBDEEBDEDBDD7
:1000DE00ECBDE7BDE6BDEBBDEABDE9BDE8BDE2BDE9
:1000EE00E5BDE4BDE3BDE5BFE4BFE9BFE0E8E8B9C7
:1000FE00E0E0E0BF40E050E04A30E0E05E075CF454
:10010E00FA013AD0AE0FBF1FE6B3F0E0ED93FC93C9
:10011E004F5F5F4FF1CF0A811B812A813B81E0E067
:10012E00E883E983A881B9811A9704F52AD0AE0F26
:10013E00BF1F0E94CB00E017F1072CF422D0AE0FA8
:10014E00BF1F0D911C911DD0AE0FBF1F0E94CB0083
:10015E002E173F072CF415D0AE0FBF1F2D913C91DB
:10016E00E881F9813196E883F983DCCFF801E5BBAC
:10017E00F901E2BBBFCFFFCFDE011296EE0FFF1FDC
:10018E000895E881F981F8CFED91FC9111970895CA
:00000001FF
